:020000040800F2
:1000000000500020E1090008310A0008310A000808
:10001000310A0008310A0008310A00080000000017
:10002000000000000000000000000000310A00088D
:10003000310A000800000000310A0008310A0008F7
:10004000310A0008310A0008310A0008310A0008A4
:10005000310A0008310A0008310A0008310A000894
:10006000310A0008310A0008310A0008310A000884
:10007000310A0008310A0008310A0008310A000874
:10008000310A0008310A0008310A0008310A000864
:10009000310A0008310A0008310A0008310A000854
:1000A000310A0008310A0008310A0008310A000844
:1000B000310A0008310A0008310A0008310A000834
:1000C000310A0008310A0008310A0008310A000824
:1000D000310A0008310A0008310A0008310A000814
:1000E000310A0008310A000800000000310A000847
:1000F000310A0008310A0008310A0008310A0008F4
:10010000310A0008310A0008310A0008310A0008E3
:10011000310A0008310A0008310A0008310A0008D3
:10012000310A0008310A0008310A0008310A0008C3
:1001300010B5054C237833B9044B13B10448AFF321
:1001400000800123237010BD440000200000000047
:100150007C0A000808B5034B1BB103490348AFF301
:10016000008008BD00000000480000207C0A000854
:1001700080B485B000AF78600023FB737B68002BF0
:1001800002D10123FB73C9E10023BB73C2E1BA7B37
:1001900013465B0013445B001A467B6813441B78CC
:1001A0001B097B73BA7B13465B0013445B001A4642
:1001B0007B6813441B7803F00F033B73BA7B134631
:1001C0005B0013445B001A467B6813449B78FB7208
:1001D0007B7B022B00F0C080022B00F31981002BE7
:1001E00002D0012B5CD013E13B7B072B17D8A44B2B
:1001F0001B683A7B92000F2101FA02F2D2431146AA
:100200009F4A0B4013609E4B1B68F97A3A7B920021
:1002100001FA02F211469A4A0B43136018E0984B18
:100220005B683A7B083A92000F2101FA02F2D2434E
:100230001146934A0B405360914B5B68F97A3A7BC5
:10024000083A920001FA02F211468D4A0B435360BC
:10025000FB7A082B22D1BA7B13465B0013445B0068
:100260001A467B681344DB78002B02D0012B0BD09D
:10027000D0E0834BDA683B7B012101FA03F3DB43D7
:100280007F491340CB600AE07D4BDA683B7B01215C
:1002900001FA03F37A491343CB6000E000BFB9E0F1
:1002A0003B7B072B17D8774B1B683A7B92000F21BB
:1002B00001FA02F2D2431146724A0B401360714BAD
:1002C0001B68F97A3A7B920001FA02F211466D4AF4
:1002D0000B43136018E06B4B5B683A7B083A920063
:1002E0000F2101FA02F2D2431146664A0B405360D5
:1002F000644B5B68F97A3A7B083A920001FA02F2A1
:100300001146604A0B435360FB7A082B22D1BA7B1B
:1003100013465B0013445B001A467B681344DB788A
:10032000002B02D0012B0BD074E0564BDA683B7BDC
:10033000012101FA03F3DB4352491340CB600AE089
:10034000504BDA683B7B012101FA03F34D4913431B
:10035000CB6000E000BF5DE03B7B072B17D84A4B2A
:100360001B683A7B92000F2101FA02F2D243114638
:10037000454A0B401360444B1B68F97A3A7B920064
:1003800001FA02F21146404A0B43136018E03E4B5B
:100390005B683A7B083A92000F2101FA02F2D243DD
:1003A0001146394A0B405360374B5B68F97A3A7B08
:1003B000083A920001FA02F21146334A0B435360A5
:1003C000FB7A082B22D1BA7B13465B0013445B00F7
:1003D0001A467B681344DB78002B02D0012B0BD02C
:1003E00018E0294BDA683B7B012101FA03F3DB4378
:1003F00025491340CB600AE0234BDA683B7B01219F
:1004000001FA03F320491343CB6000E000BF01E091
:100410000123FB73BA7B13465B0013445B001A464F
:100420007B6813445B78012B70D17B7B022B4DD012
:10043000022B6CDC002B02D0012B27D067E0BA7BAB
:1004400013465B0013445B001A467B6813445B79D8
:10045000012B09D10A4BDA683B7B012101FA03F336
:1004600007491343CB6052E0054BDA683B7B01211F
:1004700001FA03F3DB4302491340CB6047E000BFBE
:1004800000080140000C014000100140BA7B1346F7
:100490005B0013445B001A467B6813445B79012BB5
:1004A00009D1214BDA683B7B012101FA03F31E4994
:1004B0001343CB602BE01C4BDA683B7B012101FA34
:1004C00003F3DB4318491340CB6020E0BA7B1346AB
:1004D0005B0013445B001A467B6813445B79012B75
:1004E00009D1124BDA683B7B012101FA03F30F4972
:1004F0001343CB600BE00D4BDA683B7B012101FA23
:1005000003F3DB4309491340CB6000E000BFBB7B32
:100510000133BB73BB7B092B7FF639AEFB7B1846DF
:100520001437BD4680BC7047000C014000100140EC
:1005300080B584B000AF78607B685B790B2B04D802
:100540007B689B790B2B00D800E0FEE73F4B5B6894
:100550003E4A23F0F00353603C4B5B683B4A23F474
:100560006F435360394B5A687B681B791B013749CD
:1005700013434B60354B5B687A685279043A120238
:100580001146324A0B435360304B5B687A6892796C
:10059000043AD20211462D4A0B4353607B681B7804
:1005A000022B17D0022B3DDC002B02D0012B07D0F1
:1005B00038E0012000F084F8254B00221A7032E068
:1005C0007B685B780121184600F044F8204B01223B
:1005D0001A7028E07B6802330121184600F094F875
:1005E0007B689B78FB73FB7B002B03D1012000F021
:1005F00067F812E0FB7B012B06D17B685B78012159
:10060000184600F027F808E0FB7B022B05D17B6839
:100610005B780121184600F01DF80D4B02221A707C
:1006200001E0FFE7FDE77B68DB79002B04D07B6806
:10063000DB79184600F0F4F87B681B78184600F068
:10064000ABF800BF1037BD4680BD00BF00100240B0
:100650006000002080B582B000AF03460A46FB71FF
:100660001346BB71BB79012B1ED1FB79002B06D140
:10067000124B1B68114A43F48023136005E00F4BB3
:100680001B680E4A23F4802313600C4B1B680B4A33
:1006900043F4803313604FF4C87000F0E3F803466E
:1006A000002B07D000BFFDE7044B1B68034A23F46F
:1006B0008033136000BF0837BD4680BD0010024084
:1006C00080B582B000AF0346FB71FB79012B0ED1E0
:1006D0000C4B1B680B4A43F0010313604FF4C870C6
:1006E00000F010F90346002B07D000BFFDE7054BD3
:1006F0001B68044A23F00103136000BF0837BD469E
:1007000080BD00BF0010024080B584B000AF7860AB
:100710000B46FB707B681B78FB737B685B78BB7355
:10072000BB7B0E2B31D81B4B5B681A4A23F470132A
:100730005360184B5A68BB7B9B04164913434B60AC
:10074000FB7B002B06D1134B5B68124A23F48033EA
:10075000536016E0FB7B022B06D10E4B5B680D4A03
:1007600043F40033536005E00A4B5B68094A23F405
:1007700000335360074B5B68064A43F48033536091
:1007800000BF4FF4C87000F095F800BF1037BD46A9
:1007900080BD00BF0010024080B584B000AF0346AA
:1007A000FB71FB79022B16D80D4B5B680C4A23F0CA
:1007B000030353600A4B5A68FB79094913434B60A2
:1007C0004FF4C87000F0C6F80346FB73FB7B032BA5
:1007D00002D100BFFDE7FEE700BF1037BD4680BD78
:1007E0000010024080B483B000AF03463960FB7153
:1007F000FB79022B01D900BFFDE7FB799A00074B7B
:1008000013441968FB799A00044B13443A680A436D
:100810001A6000BF0C37BD4680BC70471410024000
:1008200080B483B000AF0346FB71FB79032B04D87F
:10083000FB79002B01D000BFFDE7094B5B68084A3C
:1008400023F0E0635360064B5A68FB791B060449AA
:1008500013434B6000BF0C37BD4680BC704700BFE0
:100860000010024080B483B000AF786003E000BFA6
:100870007B68013B7B600E4B1B6803F00103002B80
:1008800002D17B68002BF2D17B68002B09D1084B89
:100890001B6803F00103002B0CBF01230023DBB214
:1008A00000E0002318460C37BD4680BC704700BFEF
:1008B0000010024080B483B000AF786003E000BF56
:1008C0007B68013B7B600E4B1B6803F00103002B30
:1008D00002D17B68002BF2D17B68002B09D1084B39
:1008E0001B6803F00103002B0CBF01230023DBB2C4
:1008F00000E0002318460C37BD4680BC704700BF9F
:100900000010024080B483B000AF786003E000BF05
:100910007B68013B7B600E4B1B6803F00103002BDF
:1009200002D17B68002BF2D17B68002B09D1084BE8
:100930001B6803F00103002B0CBF01230023DBB273
:1009400000E0002318460C37BD4680BC704700BF4E
:100950000010024080B485B000AF78600023FB73C4
:100960000023BB73134B5B68DBB203F00303BB7361
:10097000104B5B689B08DBB203F00303FB7303E0DF
:1009800000BF7B68013B7B60BA7BFB7B9A4202D055
:100990007B68002BF4D17B68002B05D1BA7BFB7BF5
:1009A0009A4201D0032300E0FB7B18461437BD4672
:1009B00080BC70470010024080B500AF0648FFF7CA
:1009C000B7FD1C210120FFF70DFF044B1B681846E3
:1009D000FFF7CEFB00BFFDE73C0000200000002039
:1009E0000D488546AFF300800C480D490D4A0023A1
:1009F00002E0D458C4500433C4188C42F9D30A4AD4
:100A00000A4C002301E013600432A242FBD300F041
:100A100011F8FFF7D1FFFEE7005000200000002092
:100A2000440000209C0A00084400002064000020CC
:100A3000FEE7000070B500260C4D0D4C641BA410A1
:100A4000A64209D100F01AF800260A4D0A4C641B90
:100A5000A410A64205D170BD55F8043B9847013655
:100A6000EEE755F8043B98470136F2E7940A000890
:100A7000940A0008940A0008980A0008F8B500BF14
:100A8000F8BC08BC9E467047F8B500BFF8BC08BC6F
:040A90009E467047C7
:040A94005501000800
:040A98003101000820
:100A9C00100000000000110004000000120008010A
:100AAC0000001301020000011401060000001501F2
:100ABC000200000016010300000117010E000000E7
:100ACC0018010A0000012D010200000100000000C5
:040ADC00040404000A
:04000005080009E105
:00000001FF
