:020000040800F2
:1000000000500020E5090008350A0008350A0008FC
:10001000350A0008350A0008350A0008000000000B
:10002000000000000000000000000000350A000889
:10003000350A000800000000350A0008350A0008EB
:10004000350A0008350A0008350A0008350A000894
:10005000350A0008350A0008350A0008350A000884
:10006000350A0008350A0008350A0008350A000874
:10007000350A0008350A0008350A0008350A000864
:10008000350A0008350A0008350A0008350A000854
:10009000350A0008350A0008350A0008350A000844
:1000A000350A0008350A0008350A0008350A000834
:1000B000350A0008350A0008350A0008350A000824
:1000C000350A0008350A0008350A0008350A000814
:1000D000350A0008350A0008350A0008350A000804
:1000E000350A0008350A000800000000350A00083B
:1000F000350A0008350A0008350A0008350A0008E4
:10010000350A0008350A0008350A0008350A0008D3
:10011000350A0008350A0008350A0008350A0008C3
:10012000350A0008350A0008350A0008350A0008B3
:1001300010B5054C237833B9044B13B10448AFF321
:1001400000800123237010BD00000020000000008B
:10015000800A000808B5034B1BB103490348AFF3FD
:10016000008008BD0000000004000020800A000894
:1001700080B584B000AF78600023FB737B685B7848
:10018000022B00F0CC80022B00F32881002B02D040
:10019000012B65D022E10221022000F0A3FB7B6845
:1001A0001B78072B1BD8994B1B687A681278920032
:1001B0000F2101FA02F2D2431146944A0B40136018
:1001C000924B1B687A68927811467A68127892008E
:1001D00001FA02F211468D4A0B4313601CE08B4B6F
:1001E0005B687A681278083A92000F2101FA02F2ED
:1001F000D2431146854A0B405360844B5B687A6852
:10020000927811467A681278083A920001FA02F25E
:1002100011467E4A0B4353607B68DB78002B40F02D
:10022000E5807B685B79012B0ED0022B40F0D980F2
:10023000764BDA687B681B78194601238B40DB43D9
:1002400072491340CB600AE0704BDA687B681B7818
:10025000194601238B406D491343CB6000BFC0E0BA
:100260000321022000F03EFB7B681B78072B1BD884
:10027000674B1B687A68127892000F2101FA02F22C
:10028000D2431146624A0B401360614B1B687A6887
:10029000927811467A681278920001FA02F21146B9
:1002A0005B4A0B4313601CE0594B5B687A68127819
:1002B000083A92000F2101FA02F2D2431146544A41
:1002C0000B405360524B5B687A68927811467A68AB
:1002D0001278083A920001FA02F211464C4A0B4396
:1002E00053607B685B79012B0DD0022B7BD1484B8F
:1002F000DA687B681B78194601238B40DB4344494D
:100300001340CB600AE0424BDA687B681B781946E1
:1003100001238B403E491343CB6000BF63E00421BF
:10032000022000F0DFFA7B681B78072B1BD8394BC3
:100330001B687A68127892000F2101FA02F2D24308
:100340001146344A0B401360324B1B687A6892782E
:1003500011467A681278920001FA02F211462D4A8B
:100360000B4313601CE02B4B5B687A681278083AE9
:1003700092000F2101FA02F2D2431146254A0B40A6
:100380005360244B5B687A68927811467A681278D9
:10039000083A920001FA02F211461E4A0B435360DA
:1003A0007B685B79012B0DD0022B1ED1194BDA68CB
:1003B0007B681B78194601238B40DB4315491340AA
:1003C000CB600AE0134BDA687B681B78194601237F
:1003D0008B4010491343CB6000BF06E00123FB7341
:1003E00004E000BF02E000BF00E000BF7B68DB78F4
:1003F000012B05D17B681B791946786800F00CF851
:10040000FB7B18461037BD4680BD00BF0008014089
:10041000000C01400010014080B485B000AF78604E
:100420000B46FB700023FB737B68DB78012B68D1E4
:10043000FB78012B2ED17B685B78022B1CD0022B22
:1004400025DC002B02D0012B0BD020E0304BDA68EA
:100450007B681B78194601238B402D491343CB60E1
:100460004FE02C4BDA687B681B78194601238B40E0
:1004700028491343CB6044E0274BDA687B681B783C
:10048000194601238B4024491343CB6039E00123F3
:10049000FB7336E0FB78002B31D17B685B78022B55
:1004A0001ED0022B28DC002B02D0012B0CD023E025
:1004B000174BDA687B681B78194601238B40DB43B6
:1004C00013491340CB601CE0124BDA687B681B7841
:1004D000194601238B40DB430E491340CB6010E0EB
:1004E0000D4BDA687B681B78194601238B40DB4390
:1004F00009491340CB6004E00123FB7301E00123B1
:10050000FB73FB7B18461437BD4680BC704700BFA9
:1005100000080140000C01400010014080B485B08B
:1005200000AF78600023FB737B68DB78012B2DD153
:100530007B685B78022B1CD0022B25DC002B02D0C1
:10054000012B0BD020E0144BDA687B681B7819462E
:1005500001238B4010495340CB6017E00F4BDA6802
:100560007B681B78194601238B400C495340CB60B4
:100570000CE00B4BDA687B681B78194601238B4033
:1005800007495340CB6001E00123FB73FB7B184616
:100590001437BD4680BC704700080140000C014084
:1005A00000100140B0B582B000AF0F4800F034F841
:1005B0000E48FFF7DDFD4FF004024FF00003C7E9DE
:1005C000002309E00948FFF7A9FFD7E90023541EDB
:1005D00043F1FF35C7E90045D7E90023012A73F14C
:1005E0000003EFDAFEE700BF980A0008A40A00083B
:1005F00080B500AF074B1B68064A43F00103136048
:1006000000F0A8F9034B1B68024A43F08003136013
:1006100000BF80BD0010024080B582B000AF78609E
:100620000D48FFF7A5FD7B681B7A184600F0A2F97C
:100630000A4B0A4A1B681360FFF7DAFF7B681878D9
:100640007B6859887B689A887B68DB8800F008F8AB
:1006500000BF0837BD4680BDAC0A0008002002403C
:1006600090B482B000AF0446084611461A462346AD
:10067000FB710346BB800B467B8013463B80BB88E7
:10068000B3F5007F6FD0B3F5007F73DCB3F5807FE7
:1006900062D0B3F5807F6DDC802B56D0802B69DC77
:1006A000102B27DC002B65DD013B0F2B62D801A24C
:1006B00052F823F0FB06000805070008750700083C
:1006C000130700087507000875070008750700087C
:1006D000210700087507000875070008750700085E
:1006E00075070008750700087507000875070008FA
:1006F0002F070008402B21D03CE0794B784A5B68FB
:10070000536037E0764B5B68754A43F08003536073
:1007100030E0734B5B68724A43F09003536029E00A
:100720006F4B5B686E4A43F0A003536022E06C4B52
:100730005B686B4A43F0B00353601BE0684B5B6837
:10074000674A43F0C003536014E0654B5B68644A3A
:1007500043F0D00353600DE0614B5B68604A43F0A7
:10076000E003536006E05E4B5B685D4A43F0F003D4
:10077000536000BF7B88013B0F2B44D801A252F885
:1007800023F000BFC5070008CF07000807080008CE
:10079000DD07000807080008070800080708000828
:1007A000EB0700080708000807080008070800080A
:1007B00007080008070800080708000807080008DD
:1007C000F9070008464B464A5B6853601BE0444B00
:1007D0005B68434A43F48063536014E0404B5B68BA
:1007E0003F4A43F4A06353600DE03D4B5B683C4AD5
:1007F00043F4C063536006E0394B5B68384A43F406
:10080000E063536000BF3B88013B0F2B43D801A23C
:1008100052F823F0550800085F0800089708000800
:100820006D08000897080008970800089708000856
:100830007B08000897080008970800089708000838
:10084000970800089708000897080008970800080C
:1008500089080008224B224A5B6853601BE0204B4A
:100860005B681F4A43F40053536014E01C4B5B6801
:100870001B4A43F4205353600DE0194B5B68184A40
:1008800043F44053536006E0154B5B68144A43F44D
:100890006053536000BFFB79002B06D1104B5B689F
:1008A0000F4A43F00103536010E0FB79022B04D19F
:1008B0000B4B0B4A5B68536008E0FB79012B05D1B9
:1008C000074B5B68064A43F002035360044B044A3B
:1008D0005B68536000BF0837BD4690BC704700BFDF
:1008E0000010024080B483B000AF03460A46FB719B
:1008F0001346BB71FB79022B1AD0022B22DC002B92
:1009000002D0012B0AD01DE0114B5A69BB7901219D
:1009100001FA03F30E4913434B6113E00C4BDA6900
:10092000BB79012101FA03F309491343CB6109E0C3
:10093000074B9A69BB79012101FA03F30449134378
:100940008B6100BF00BF0C37BD4680BC704700BF45
:100950000010024080B400AF00BF054B1B6803F0DD
:100960000103002BF9D000BF00BFBD4680BC70471B
:100970000010024080B483B000AF0346FB71FB79E6
:10098000012B06D1164B5B68154A43F08063536018
:1009900021E0FB79032B06D1114B5B68104A43F031
:1009A000C063536017E0FB79022B06D10C4B5B68E8
:1009B0000B4A43F0A06353600DE0FB79042B06D192
:1009C000074B5B68064A43F0E063536003E0044B67
:1009D000034A5B68536000BF0C37BD4680BC70475C
:1009E000001002400D488546AFF300800C480D49C9
:1009F0000D4A002302E0D458C4500433C4188C427A
:100A0000F9D30A4A0A4C002301E013600432A242DF
:100A1000FBD300F011F8FFF7C5FDFEE70050002002
:100A20000000002000000020BC0A00080000002098
:100A30001C000020FEE7000070B500260C4D0D4C98
:100A4000641BA410A64209D100F01AF800260A4D32
:100A50000A4C641BA410A64205D170BD55F8043B96
:100A600098470136EEE755F8043B98470136F2E720
:100A7000B40A0008B40A0008B40A0008B80A00085A
:100A8000F8B500BFF8BC08BC9E467047F8B500BF7B
:080A9000F8BC08BC9E4670474B
:100A98000200010001000100020000000001010144
:0C0AA8000100000008000901000000002F
:040AB40055010008E0
:040AB8003101000800
:04000005080009E501
:00000001FF
